{
  "_format": "hh-sol-artifact-1",
  "contractName": "EncryptedMentalHealthDiary",
  "sourceName": "contracts/EncryptedMentalHealthDiary.sol",
  "abi": [
    {
      "anonymous": false,
      "inputs": [
        {
          "indexed": true,
          "internalType": "address",
          "name": "user",
          "type": "address"
        },
        {
          "indexed": false,
          "internalType": "uint256",
          "name": "date",
          "type": "uint256"
        },
        {
          "indexed": false,
          "internalType": "uint256",
          "name": "timestamp",
          "type": "uint256"
        }
      ],
      "name": "EntryAdded",
      "type": "event"
    },
    {
      "anonymous": false,
      "inputs": [
        {
          "indexed": true,
          "internalType": "address",
          "name": "user",
          "type": "address"
        },
        {
          "indexed": false,
          "internalType": "uint256",
          "name": "date",
          "type": "uint256"
        }
      ],
      "name": "EntryDecrypted",
      "type": "event"
    },
    {
      "inputs": [
        {
          "internalType": "uint256",
          "name": "date",
          "type": "uint256"
        },
        {
          "internalType": "bytes32",
          "name": "encryptedMentalStateHandle",
          "type": "bytes32"
        },
        {
          "internalType": "bytes32",
          "name": "encryptedStressHandle",
          "type": "bytes32"
        }
      ],
      "name": "addEntry",
      "outputs": [],
      "stateMutability": "nonpayable",
      "type": "function"
    },
    {
      "inputs": [
        {
          "internalType": "address",
          "name": "user",
          "type": "address"
        },
        {
          "internalType": "uint256",
          "name": "date",
          "type": "uint256"
        }
      ],
      "name": "entryExists",
      "outputs": [
        {
          "internalType": "bool",
          "name": "",
          "type": "bool"
        }
      ],
      "stateMutability": "view",
      "type": "function"
    },
    {
      "inputs": [
        {
          "internalType": "address",
          "name": "user",
          "type": "address"
        },
        {
          "internalType": "uint256",
          "name": "date",
          "type": "uint256"
        }
      ],
      "name": "getEntry",
      "outputs": [
        {
          "internalType": "bytes32",
          "name": "mentalStateHandle",
          "type": "bytes32"
        },
        {
          "internalType": "bytes32",
          "name": "stressHandle",
          "type": "bytes32"
        },
        {
          "internalType": "uint256",
          "name": "timestamp",
          "type": "uint256"
        }
      ],
      "stateMutability": "view",
      "type": "function"
    },
    {
      "inputs": [
        {
          "internalType": "address",
          "name": "user",
          "type": "address"
        }
      ],
      "name": "getEntryCount",
      "outputs": [
        {
          "internalType": "uint256",
          "name": "",
          "type": "uint256"
        }
      ],
      "stateMutability": "view",
      "type": "function"
    },
    {
      "inputs": [
        {
          "internalType": "address",
          "name": "user",
          "type": "address"
        }
      ],
      "name": "getLastEntryDate",
      "outputs": [
        {
          "internalType": "uint256",
          "name": "",
          "type": "uint256"
        }
      ],
      "stateMutability": "view",
      "type": "function"
    },
    {
      "inputs": [
        {
          "internalType": "address",
          "name": "user",
          "type": "address"
        },
        {
          "internalType": "uint256",
          "name": "date",
          "type": "uint256"
        }
      ],
      "name": "getMentalStateHandle",
      "outputs": [
        {
          "internalType": "bytes32",
          "name": "encryptedHandle",
          "type": "bytes32"
        }
      ],
      "stateMutability": "view",
      "type": "function"
    },
    {
      "inputs": [
        {
          "internalType": "address",
          "name": "user",
          "type": "address"
        },
        {
          "internalType": "uint256",
          "name": "date",
          "type": "uint256"
        }
      ],
      "name": "getStressHandle",
      "outputs": [
        {
          "internalType": "bytes32",
          "name": "encryptedHandle",
          "type": "bytes32"
        }
      ],
      "stateMutability": "view",
      "type": "function"
    },
    {
      "inputs": [],
      "name": "protocolId",
      "outputs": [
        {
          "internalType": "uint256",
          "name": "",
          "type": "uint256"
        }
      ],
      "stateMutability": "pure",
      "type": "function"
    }
  ],
  "bytecode": "0x608060405234801561000f575f5ffd5b5061018a6100ae604080516080810182525f80825260208201819052918101829052606081019190915250604080516080810182527350157cffd6bbfa2dece204a89ec419c23ef5755d815273cd3ab3bd6bcc0c0bf3e27912a92043e817b1cf69602082015273a02cda4ca3a71d7c46997716f4283aa851c2881291810191909152731364cbbf2cdf5032c47d8226a6f6fbd2afcdacac606082015290565b80517f9e7b61f58c47dc699ac88507c4f5bb9f121c03808c5676a8078fe583e464970080546001600160a01b03199081166001600160a01b039384161790915560208301517f9e7b61f58c47dc699ac88507c4f5bb9f121c03808c5676a8078fe583e46497018054831691841691909117905560408301517f9e7b61f58c47dc699ac88507c4f5bb9f121c03808c5676a8078fe583e46497028054831691841691909117905560608301517f9e7b61f58c47dc699ac88507c4f5bb9f121c03808c5676a8078fe583e46497038054909216921691909117905550565b610536806101975f395ff3fe608060405234801561000f575f5ffd5b5060043610610085575f3560e01c8063935c96d411610058578063935c96d414610133578063b8a740e014610148578063c5c9bd2514610176578063da1f12ab1461019e575f5ffd5b80631cf0cae614610089578063438c7f68146100d75780635640028a1461010d5780636359ef7114610120575b5f5ffd5b6100c2610097366004610494565b6001600160a01b03919091165f90815260208181526040808320938352929052206003015460ff1690565b60405190151581526020015b60405180910390f35b6100ff6100e53660046104bc565b6001600160a01b03165f9081526001602052604090205490565b6040519081526020016100ce565b6100ff61011b366004610494565b6101a6565b6100ff61012e366004610494565b61023b565b6101466101413660046104dc565b6102ce565b005b61015b610156366004610494565b6103ab565b604080519384526020840192909252908201526060016100ce565b6100ff6101843660046104bc565b6001600160a01b03165f9081526002602052604090205490565b6127116100ff565b6001600160a01b0382165f9081526020818152604080832084845290915281206003015460ff166102155760405162461bcd60e51b8152602060048201526014602482015273115b9d1c9e48191bd95cc81b9bdd08195e1a5cdd60621b60448201526064015b60405180910390fd5b506001600160a01b03919091165f90815260208181526040808320938352929052205490565b6001600160a01b0382165f9081526020818152604080832084845290915281206003015460ff166102a55760405162461bcd60e51b8152602060048201526014602482015273115b9d1c9e48191bd95cc81b9bdd08195e1a5cdd60621b604482015260640161020c565b506001600160a01b03919091165f90815260208181526040808320938352929052206001015490565b60408051608081018252838152602080820184815242838501908152600160608501818152335f8181528087528881208c825287528881209751885594518784015592516002870155516003909501805460ff1916951515959095179094558152919052205483111561034d57335f9081526001602052604090208390555b335f90815260026020526040812080549161036783610505565b90915550506040805184815242602082015233917f911bf6ee7316d558e9f9d6410f3dc435149aa668defe87972098834cb6374a4e910160405180910390a2505050565b6001600160a01b0382165f908152602081815260408083208484529091528120600301548190819060ff166104195760405162461bcd60e51b8152602060048201526014602482015273115b9d1c9e48191bd95cc81b9bdd08195e1a5cdd60621b604482015260640161020c565b5050506001600160a01b0382165f90815260208181526040808320848452825291829020825160808101845281548082526001830154938201849052600283015494820185905260039092015460ff161515606090910152919250925092565b80356001600160a01b038116811461048f575f5ffd5b919050565b5f5f604083850312156104a5575f5ffd5b6104ae83610479565b946020939093013593505050565b5f602082840312156104cc575f5ffd5b6104d582610479565b9392505050565b5f5f5f606084860312156104ee575f5ffd5b505081359360208301359350604090920135919050565b5f6001820161052257634e487b7160e01b5f52601160045260245ffd5b506001019056fea164736f6c634300081b000a",
  "linkReferences": {},
  "deployedLinkReferences": {}
}